ARHD09      00111100 ALLAN HANCOCK COLLEGE           201811301819                                                                                                                                                                                                                                                                                                                                                                                                                               
GPAR20182C17597585123456789AGUAYO             BENJAMIN    20181130CUB0000000000FLACC      0083600                    PD                                                                                                                                                                                                                                                                                                                                                                         
GPAR20182C18839235123456789DENTON             LAURA      E20181130CUC1883900000FLB&S      0000000              LA                                                                                                                                                                                                                                                                                                                                                                               
GPAR20182C18839235123456789DENTON             LAURA      E20181130CUC0000000000FL         0000000                    SC                                                                                                                                                                                                                                                                                                                                                                         
GPAR20182E17465938123456789DOMINGUEZ-GALIND   ABEL        20181130CUB0000000000FLACC      0083600                    PD                                                                                                                                                                                                                                                                                                                                                                         
GPAR20182E17512800123456789GALLARDO-AGUILAR   JOSE       F20181130CUB0000000000FL         0000000                    SC
GPAR20182E17426845123456789HERNANDEZ          OLIVIA     I20181130RUB11807     FLACC      0000000              LA                                                                                                                                                                                                                                                                                                                                                                               
GPAR20182E18807300123456789HICKSWALTER        TATYANA    S20181130RUB12844     FLACC      0000000              LA                                                                                                                                                                                                                                                                                                                                                                               
GPAR20182E18714326123456789MARTINEZ           KAYLEE     M20181130CUB0000000000FLACC      0083600                    PD                                                                                                                                                                                                                                                                                                                                                                         
GPAR20182E15112705123456789PIMENTELRUIZ       MARIA      M20181130RUB11761     FLACC      0000000              LA                                                                                                                                                                                                                                                                                                                                                                               
GPAR20182E17470868123456789RAMIREZ            MIRANDA    M20181130CUB1284400000FLACC      0000000              LA                                                                                                                                                                                                                                                                                                                                                                               
GPAR20182E18661657123456789VARGAS             CRYSTAL    C20181130CUB2057300000FLACC      0000000              LH                                                                                                                                                                                                                                                                                                                                                                               
ARTR09      00111100 ALLAN HANCOCK COLLEGE           201811301819000003000000000000000080000025080000001100000250800000000000000000000000000000000000000000000000000000000003000000000000000080000025080000001100000250800                                                                                                                                                                                                                                                                      
ARHD09      00118500 COLLEGE OF THE REDWOODS         201811301819                                                                                                                                                                                                                                                                                                                                                                                                                               
GPAR20182E16240760123456789OLIVAS             LEXEY      R20181130CUB1371000000FLACC      0000000              LA                                                                                                         016746: STUDENT HAS BEEN WITHDRAWN.  WITHDRAWAL REASON IS  82                                                                                                                                                                                                         
GPAR20182E17565799123456789OLLIER             ROBERT     W20181130CUB1106200000FLACC      0000000              LA                                                                                                                                                                                                                                                                                                                                                                               
GPAR20182C13710540123456789ZFATY              JOSEPH     A20181130CUB1846000000FLACC      0000000              LA
ARTR09      00118500 COLLEGE OF THE REDWOODS         201811301819000006000000000000003250000233620000033100002336200000000000000000000000010000000000000000100000000000000006000000000000003260000233620000033200002336200